:020000040800F2
:1000000000020020310B0008310F0008310F0008FA
:10001000310F0008310F0008310F0008310F0008C0
:10002000310F0008310F0008310F0008E109000806
:10003000310F0008310F0008310F0008B10A000825
:10004000310F0008310F0008310F0008310F000890
:10005000310F0008310F0008310F0008310F000880
:10006000310F0008310F0008310F0008C10C0008E3
:10007000F10C0008210D0008610D0008A10D000819
:10008000E10D0008210E0008310F0008310F0008B3
:10009000310F0008310F0008310F0008310F000840
:1000A000310F0008310F0008310F0008310F000830
:1000B000310F0008310F0008310F0008310F000820
:1000C000310F0008310F0008310F0008310F000810
:1000D000310F0008310F0008310F0008310F000800
:0C00E000310F0008310F0008310F00083C
:0C00EC0011020008550200080101000884
:0400F80031020008C9
:100100000A4B0B48194641F8800B0022C3F8E41053
:10011000C3F8E8100121DA6683F870205A679A67FD
:1001200083F8EC10C3F8F020704700BFDC08002013
:10013000181F000800000000000000000000000080
:10014000002307B51A460921244800F059FF234827
:1001500000F0F6FE00F044FD00F0E2FA204B2149E9
:1001600098699A69204C42F001029A614A6822F02B
:10017000E06242F000724A60C20758BF9A694FF4C9
:10018000E1315CBF22F001029A61184B18481A69EC
:10019000184B1A600A23184A8DE80C00092301F055
:1001A000CFFB204601F014FA144B154A15491048AC
:1001B00001F0FEFA202383F3118800F081F8124940
:1001C0002046216001F084F800F092F8002383F3C8
:1001D000118840F2E73000F063FBFAE7B408002032
:1001E0000010024000000140C00800205C0B00200D
:1001F000DC080020480B002000080140701F0008A8
:10020000851F00088E1F0008201F00080000000046
:10021000024B13B1024801F093BC7047000000008C
:10022000511B00080000000000000000000000005A
:1002300010B5054C237833B9044B13B10448AFF320
:1002400000800123237010BD38080020000000004A
:10025000AC1F00080C4B43B10C4810B50C49AFF370
:1002600000800C48036823B910BD0A48036833B9FD
:100270007047094B002BF7D0BDE810401847064BDC
:10028000002BF5D0184700BF00000000AC1F00088D
:100290003C0800203408002000000000000000009E
:1002A000044B1B6813B9044B1B6813B1034800F0DF
:1002B000CFBE7047540B0020580B0020AA1C00082A
:1002C000064B10B51B68064C0BB9236813B10548E3
:1002D00000F0BEFE0123236010BD00BF540B0020C0
:1002E000580B0020AF1C00080000000000000000B8
:1002F000064B10B51B68064C13B92368002B02DCB3
:10030000044800F0A5FE0023236010BD540B00201C
:10031000580B0020B41C0008000000000000000082
:10032000064B10B51B68064C002B01DD236813B18A
:10033000044800F08DFE0123236010BD540B002003
:10034000580B0020B91C000800000000000000004D
:10035000074B10B51B68074C002B02DD2368002BF0
:1003600002DC054800F074FE0023236010BD00BFCE
:10037000540B0020580B0020BE1C00080000000099
:1003800010B5202383F31188084C2368002B02DB6F
:10039000074B1B6813B1074800F05AFE236801336E
:1003A0002360002383F3118810BD00BF540B00208D
:1003B000580B0020C31C00080000000000000000D3
:1003C00010B5202383F31188084C2368002B02DD2D
:1003D000074B1B6813B1074800F03AFE2368013B46
:1003E0002360002383F3118810BD00BF540B00204D
:1003F000580B0020C81C000800000000000000008E
:10040000054B1B68002B03DB044B1B68002B02DC35
:10041000034800F01DBE7047540B0020580B00200D
:10042000CD1C0008000000000000000000000000DB
:10043000054B1B681BB9054B1B68002B02DC0448ED
:1004400000F006BE704700BF540B0020580B002080
:10045000D31C0008000000000000000000000000A5
:1004600038B504460D46FFF7CBFF14B90B4800F032
:10047000EFFD216A237D2943082B216203D1E36923
:10048000194205D138BD092B07D1E3698B4304D14B
:10049000204600F00DF80023C36138BD0A1D000896
:1004A000024B00225B601B609A6070475C0B00206F
:1004B00010B50446FFF7A4FF237D0BB10E2B02D12C
:1004C000084800F0C5FD00232375A268064B1B6891
:1004D00099689142FBD25A682360626020465C6052
:1004E000146010BD701D00085C0B002000000000AF
:1004F00038B50446202383F31188FFF711FF257DCB
:100500005DB1032D0DD1E26993680133936094E8E6
:100510000C001A602268536003E0FFF719FF2B46B6
:1005200008E04FF0FF33E3612046FFF7C1FFFFF71C
:100530000FFF002383F3118838BD00000000000086
:1005400038B50446FFF774FF0D4B14221D69AA75D8
:100550001A682C7511681C464B60196001211175D1
:1005600029691A61ADF12402914202D9054800F0CF
:100570006FFD29462069BDE8384000F0B1BA00BFE0
:100580005C0B0020821D000800000000000000003D
:1005900070B50E4686B00546FFF74AFF731C0C4C3B
:1005A0000ED023690B4A314601A800F0C1F9284654
:1005B000FFF7C6FF049B33B101A800F0E1F902E0A8
:1005C0002846FFF7BDFF2369D86906B070BD00BF9C
:1005D0005C0B0020F1040008000000000000000097
:1005E00070B504460D46114EFFF722FF3069E561F4
:1005F000A26883689A4204D82046BDE87040FFF79D
:1006000057BFFFF755FF012323750269ADF124039E
:100610009A420546346102D9054800F019FD294681
:100620002046BDE8704000F05BBA00BF5C0B0020C4
:10063000821D000800000000000000000000000013
:1006400038B50E4C236825691A6828465460226024
:1006500001221A7523611423AB75FFF729FF2A695C
:10066000ADF124039A4202D9054800F0F1FC294675
:100670002069BDE8384000F033BA00BF5C0B0020B1
:10068000821D0008000000000000000000000000C3
:1006900038B5124B1D461A681C6911684B60196009
:1006A000012111751A6100222275A2681B689968E0
:1006B0009142FBD85A68236062605C6014602269D2
:1006C000ADF124039A4202D9054800F0C1FC21464D
:1006D0002869BDE8384000F003BA00BF5C0B002079
:1006E000821D000800000000000000000000000063
:1006F000034B1B699B7D0BB9FFF7A2BFFFF7C8BF78
:100700005C0B002000000000000000000000000062
:1007100030BFFDE700000000000000000000000006
:1007200013B500F06DF9FFF7BBFE00F0F1F84021C2
:100730000B4800F05DF80B4B012418610A4B04755F
:100740000361FFF7ADFD002383F3118862B69821A2
:1007500000932246054B064800F082F802B010BD17
:10076000540800205C0B0020000200201107000844
:10077000700B0020000000000000000000000000DE
:100780002DE9F041FFF73CFE164B1B699A7D0AB13B
:10079000013A9A759A6901329A61134BDA681C46DC
:1007A0000132DA601A689A4219D027469368013BF1
:1007B00093602568AE6896B92B68D5F80C80EE601A
:1007C0005F603B60FFF7C4FD334683F311882869FF
:1007D000C047202383F31188FFF7A2FDE9E7BDE8B6
:1007E000F08100BF5C0B0020080C0020000000001E
:1007F0000222027500228160427514210262826128
:1008000000F12402817502617047000000000000C1
:100810002DE9F04104460D4616461F46DDF81880C6
:10082000FFF7EEFD24B1872D02D97F2E00D817B92E
:10083000084800F00DFC243D074A6319E360314687
:1008400067512046C3F804801A62BDE8F041FFF703
:10085000CFBF00BFA01D0008F10A00080000000083
:10086000F7B51F4604460D461646202383F311882C
:10087000FFF726FD089B3246009329463B4620465B
:10088000FFF7C6FF00210446FFF7AAFEFFF730FD81
:10089000002383F31188204603B0F0BD0000000060
:1008A00010B5044610B9094800F0D2FB202383F3A9
:1008B0001188FFF705FD21460620FFF769FEFFF7C7
:1008C00017FD002383F3118810BD00BFD81D000859
:1008D00008B5054B1B69D8610E20FFF731FEBDE856
:1008E0000840024800F0B4BB5C0B0020E71D000884
:1008F00010B52023044683F31188FFF7E1FC20465E
:10090000BDE81040FFF7E4BF000000000000000059
:10091000044B4FF0FF329A6000225B601B60DA608C
:10092000704700BF080C002000000000000000001D
:10093000F8B504460D4616461F46FFF761FD0CB19B
:1009400006B115B90C4800F083FB0C4A2761136807
:10095000E66099688D4202D96D1A1B68F9E75968FB
:100960002360616093425C600C60A5601EBF996863
:10097000491B9960F8BD00BF001E0008080C00204C
:1009800010B50446FFF73CFD14B90B4800F060FBBE
:10099000E36813B9094800F05BFB2368084A9342F7
:1009A0001FBF9968A26852189A6062681360236832
:1009B0005A600023E36010BD0D1E00081C1E0008D5
:1009C000080C0020000000000000000000000000F3
:1009D000FFF776FCFFF78CFEFFF78AFC00DF0000D4
:1009E000EFF30983203383F30988002383F311880D
:1009F0007047000000000000000000000000000040
:100A000008B50A4B00229A60094A1021DA600720D3
:100A100000F03EF94FF400710A2000F039F9BDE80A
:100A2000084080210B2000F033B900BF00ED00E04A
:100A30000003FA05000000000000000000000000B4
:100A4000202383F31188144B5B6813F4006320D0D8
:100A5000EFF30982A2F1200383F309880F494FF0D5
:100A6000807342F8043C0B690968987D89689B682B
:100A700020B1994294BF0023012303E0994234BF7F
:100A8000002301230BB1064B00E0064B42F8083C63
:100A9000704783F31188704700ED00E05C0B002085
:100AA000D1090008DC090008000000000000000077
:100AB00008B5FFF765FC202383F31188FFF730FCAE
:100AC000FFF75EFEFFF744FC002383F31188FFF776
:100AD00077FCBDE80840FFF7B3BF0000000000004E
:100AE0002DE9F04FC1F80CD0D0F80CD0BDE8F08F54
:100AF00008B5FFF7FDFB002383F311882846A047C4
:100B0000FFF7F6FE08BD0000000000000000000036
:100B1000704700000000000000000000000000001E
:100B2000FEE70000000000000000000000000000E0
:100B300072B61D4B83F30988022282F31488BFF337
:100B40006F8F1A4A1A494FF055308A4202D242F842
:100B5000040BFAE7174A4FF055319A4202D242F895
:100B6000041BFAE700F064FA134A144B14498B4251
:100B700004D252F8040F43F8040BF8E7114B124A61
:100B80000021934202D243F8041BFAE7FFF7C0FFAB
:100B90000E4C0F4DAC4203D254F8043B9847F9E792
:100BA000FFF7CEFAFFF7BCFF000400200000002092
:100BB0000002002000020020AC1F000800040020FA
:100BC00034080020380800203C0C0020EC0000080D
:100BD000F800000800000000000000000000000015
:100BE00000F006B800000000000000000000000057
:100BF0000D4B00201A694FF0FF321A611861D96855
:100C0000DA600A4AD86012684FF47A71B2FBF1F2E6
:100C10000749013A4A60072288600A60DA6942F0AF
:100C20008052DA6100F01CB900100240B4080020C4
:100C300010E000E0000000000000000000000000E4
:100C400020F0030202F1604202F56142C30030B5B8
:100C500003F01803D2F80053FF249C40994025EA82
:100C600004042143C2F8001300F01F024009800071
:100C7000012300F16040934000F56140C0F88031ED
:100C8000036030BD00000000000000000000000014
:100C900000F0030320F0030000F1604010B500F500
:100CA0006D40DB008469FF229A4024EA02029940E9
:100CB0001143816110BD0000000000000000000031
:100CC00008B5FFF75DFB084B0F2219685A60074A09
:100CD00001F00F0113680BB150689847FFF770FBE4
:100CE000BDE80840FFF7ACBE0000024078080020D5
:100CF00008B5FFF745FB084BF02219685A60074A10
:100D0000C1F3031193680BB1D0689847FFF758FB04
:100D1000BDE80840FFF794BE0000024078080020BC
:100D200008B5FFF72DFB094B4FF4706219685A6044
:100D3000074AC1F3032113690BB150699847FFF7C4
:100D40003FFBBDE80840FFF77BBE00BF000002404C
:100D500078080020000000000000000000000000F3
:100D600008B5FFF70DFB094B4FF4704219685A6044
:100D7000074AC1F3033193690BB1D0699847FFF774
:100D80001FFBBDE80840FFF75BBE00BF000002404C
:100D900078080020000000000000000000000000B3
:100DA00008B5FFF7EDFA094B4FF4702219685A6045
:100DB000074AC1F30341136A0BB1506A9847FFF722
:100DC000FFFABDE80840FFF73BBE00BF000002404D
:100DD0007808002000000000000000000000000073
:100DE00008B5FFF7CDFA094B4FF4700219685A6045
:100DF000074AC1F30351936A0BB1D06A9847FFF7D2
:100E0000DFFABDE80840FFF71BBE00BF000002404C
:100E10007808002000000000000000000000000032
:100E200008B5FFF7ADFA094B4FF0706219685A60C8
:100E3000074AC1F30361136B0BB1506B9847FFF77F
:100E4000BFFABDE80840FFF7FBBD00BF000002404D
:100E500078080020000000000000000000000000F2
:100E60000A4A002330B513601A46094C09490C257B
:100E700005FB03F00059026041F833200133072BD2
:100E8000F6D1054B4FF0FF325A6030BDB00800205C
:100E9000601E0008780800200000024000000000EA
:100EA0002DE9F0410F4614469846054610B91C48F6
:100EB00000F0CEF8DFF874E0697A0120DEF8006017
:100EC00000FA01FC1CEA060F28D1164A4CEA060378
:100ED00042F83140CEF8003002EBC1025B06C2F8A6
:100EE000048018BF104A696818BF53694FF00006A4
:100EF0001CBF034353612B681A6822F001021A6079
:100F0000287A0F2282400A601E6034B1A87A390123
:100F1000FFF796FE3046BDE8F0812046BDE8F0813F
:100F2000301E00087808002000100240B0080020A1
:100F3000FEE70000000000000000000000000000CC
:100F4000F0B5284D87B06B68044603F00C03082BFE
:100F500014D1EB6A6A686968C2F383420232112ACB
:100F600008BF1022C90341BF03F00F031E4901331C
:100F7000B1FBF3F358BF1D4B5A4300E01A4A1C4B18
:100F800002AF03F1100CE6463E4618685968083374
:100F900003C663453746F7D16B6806A9C3F303134D
:100FA0000B4413F8103CDEF8041022FA03F36A46EF
:100FB000DEF80000236003C26A6806A9C2F30222B9
:100FC0000A4412F8182C23FA02F262606A68120AC4
:100FD00002F038020A4412F8182CD340A36007B07C
:100FE000F0BD00BF0010024000127A0000093D0071
:100FF000801C00080000000000000000000000004D
:1010000010B5074C606820F47F5020F0300040EAB3
:10101000C32343EA022242EA0111616010BD00BF0E
:10102000001002400000000000000000000000006E
:10103000044B1A6842F001021A601A689207FCD544
:10104000704700BF001002400000000000000000D8
:1010500002460249024800F0CBBB00BFC01E000898
:10106000DC0800200000000000000000000000007C
:10107000F0B5664685B0002501AFB0FBF1F201FB8B
:101080001203092B05F1010594BF30333733DBB26E
:101090007C19104604F8013C002AEED12C46336836
:1010A0009C420ED2327CF3680AB1302000E020204E
:1010B0009847B368726801339342B3600FD201342A
:1010C000EDE7B3687468E41AAC4228BF2C462344A9
:1010D000B36024B1013CF368385D9847F9E705B087
:1010E000F0BD000000000000000000000000000053
:1010F0002DE9F04F1C4689B000230690049105931A
:1011000003938DF81C3001271078561C002800F03E
:10111000AE80252809D0069B9847059B049A013389
:1011200093420593C0F0A180A1E0002318461D461C
:10113000194603938DF81C304FF00A0C16F8012B5A
:10114000A2F1300E5FFA8EF8B8F1090F08D819B97C
:10115000302A04BF012318460CFB01E10125EDE70D
:1011600005B103910BB18DF81C0002F0DF03532B86
:101170000FD1251D24682378002B71D0059B5A1CA4
:101180000592049A93426BD214F8010B069B984780
:10119000F1E7632A0BD1069B20789847059B049AB8
:1011A0000133934204F10405059359D35FE0582AB3
:1011B00004D1251D0DF10C0C102105E0752A07D175
:1011C000251D0DF10C0C0A212068FFF751FF47E0A7
:1011D000642A12D1251D2468002C09DA069B2D20D3
:1011E0009847059B049A0133934205933FD264428A
:1011F0000DF10C0C0A212046E7E7412A2FD1636844
:10120000D4F8088001930DF120090223D4F800A03E
:1012100004F10C058DF81C7049F8143D00245FFAA8
:1012200088FB019B9C421BDA002C0BDC1021CC4676
:101230001AF80400FFF71CFF049B059999420FD28E
:101240000134EEE7B8F1000FF0D0069B58469847FE
:10125000059B049901338B420593E7D300E02546B3
:10126000049B059A9A4202D22C4632464CE70598D6
:1012700009B0BDE8F08F0000000000000000000091
:10128000C268836803EB8203198670470000000080
:10129000F7B5CFB20446C1F30726C1F307450848A6
:1012A0003946FFF7EDFF31460648FFF7E9FF2946CB
:1012B0000548FFF7E5FF27766676A57603B0F0BD13
:1012C000F01E0008E01E0008D01E0008000000000C
:1012D00003692DE9F04704460E4613B10430FFF7C9
:1012E0004FFB5D4FDFF87881DFF878910836A6F183
:1012F0000805002D00F0AD8016F8083C032BF8D847
:10130000DFE803F0025D656F237E16F8032C93423D
:101310006BD1607E16F8021C884266D1A07E16F85A
:10132000011C884261D10836E1E7AA796B7901F0A6
:101330007F4143EA0223EA79204643EA0243194304
:10134000FFF7A6FFEFE758DD013B55E05CDD013B11
:1013500059E060DD013B5DE0D5F801200433B2FBCC
:10136000F3F35A1C637EA97999421EBFD5F8010098
:101370000433B0FBF3F0A17EEB7914BF0130002001
:101380008B421DBFD5F801300431B3FBF1F30021CE
:1013900018BF591C824238BF024691424FF47A73FB
:1013A00038BF11465943A1F57A71B1FBF3F12B46D1
:1013B0002A4A0131201DBDE8F047FFF7B9BAD5F838
:1013C00001100029AFD005F10803244AF2E72046B6
:1013D000D5F8012050F8043B012103EBC2031F4A5A
:1013E000E9E700232360BDE8F087D5F80110002964
:1013F0009BD09342A7DA01332376637E16F8022C42
:101400009342A3DA01336376A37E16F8012C93424C
:101410009FDA0133A376217E3846FFF731FF617EE4
:101420004046FFF72DFFA17E4846FFF729FF237EA8
:1014300016F8032C9A428FD1627E16F8023C9A422B
:1014400005D1A27E16F8013C9A423FF46CAF00220F
:1014500088E7BDE8F08700BFF01E0008711400089F
:10146000E01E0008D01E0008000000000000000080
:1014700010B52023044683F31188FEF751FF21465F
:101480000448FFF725FFFEF763FF002383F311886D
:1014900010BD00BFC00800200000000000000000D8
:1014A00030B5444A04688388944243492CD18A6900
:1014B00042F004028A618A69072B42F001028A61C4
:1014C00037DC9B00DAB20F232568934025EA03033B
:1014D00023600B23256893402B4323608368B3F17B
:1014E000804F36D1CA6942F00102CA6101221A80D6
:1014F00000229A80FF229A85C268013A032A39D8CD
:10150000DFE802F02E39434D2C4A944203D18A6918
:1015100042F00802CEE72A4A944203D18A6942F097
:101520001002C7E7274A9442C5D18A6942F02002D7
:10153000C0E70F25083B9B006268DBB29D4022EAB2
:10154000050262600B22656802FA03F32B436360B5
:10155000C4E71D4A9342C9D1CA6942F00202C4E7F6
:101560001A8B92B242F060021A831A8C92B242F045
:1015700001021A8430BD1A8B92B242F4C0421A831F
:101580001A8C92B242F01002F3E79A8B92B242F0B8
:1015900060029A831A8C92B242F48072E9E79A8BC5
:1015A00092B242F4C0429A831A8C92B242F48052B0
:1015B000DFE700BF0008014000100240000C0140BE
:1015C0000010014000140140000400400000000031
:1015D00013B504460A48FFF763FF0A48FFF760FFA8
:1015E0000948FFF75DFF00238DF804308DF80530C2
:1015F0008DF8063001992046FFF74AFE02B010BD73
:10160000F01E0008E01E0008D01E000800000000C8
:10161000054B1A4619880906FCD580B298801388B4
:101620001B06FCD5704700BF0038014000000000D9
:10163000104B984205D1104A936943F0040393611B
:1016400070470E4B984204D10B4A936943F008034C
:10165000F5E70B4B984204D1074A936943F0100316
:10166000EDE7084B9842EBD1034A936943F020031E
:10167000E5E700BF0008014000100240000C0140F7
:1016800000100140001401400000000000000000B4
:10169000D0F8E8305A1CC0F8E8201970D0F8E820DB
:1016A00000F1E3039A4224BF00F18003C0F8E83060
:1016B0007047000000000000000000000000000073
:1016C00001460148FFF7E4BFDC08002000000000ED
:1016D000D0F8E410D0F8F02000F1E3035B1A934255
:1016E00028BF1346C0F8F43063B1002280F8EC2024
:1016F000054A526AD160536092231360136843F025
:1017000001031360704700BF601E00080000000066
:10171000124B596A0A6822F001020A609A6A93F829
:101720002C100F238B401360D0F8F410D0F8F03059
:10173000D0F8E4205B1A0A4400F1E3018A4228BF92
:1017400000F18002C0F8F030C0F8E4201BB901239A
:1017500080F8EC307047FFF7BBBF00BF601E000889
:101760000148FFF7D5BF00BFDC08002000000000E3
:1017700010B50446D0F8F00013460A46C0F16301E4
:101780000848FFF7B5FCD4F8F030184494F8EC3072
:10179000C4F8F00023B12046BDE81040FFF798BF21
:1017A00010BD00BFC11600080000000000000000CE
:1017B0000EB477B507AC054654F8046B202383F3C9
:1017C0001188FEF77DFD2246314628460194FFF739
:1017D000CFFFFEF78DFD002383F3118803B0BDE832
:1017E000704003B0704700000000000000000000DF
:1017F0000EB403B503AB53F8042B05490548019318
:10180000FFF776FC02B05DF804EB03B0704700BF51
:101810009F86010011160008000000000000000073
:10182000044680B5344E354F6320FFF739F8336BEB
:10183000D4F8F8505B68C3F16303AB42F4D04FF0C7
:101840000008C1465D1BDFF8B8A048BF6335C4F887
:10185000F8304545E8DDD4F8FC305A1CC4F8FC20CB
:10186000622A94F87020234493F80031C8BFC4F86A
:10187000FC9042B1082B84F87090C4F86C9037D17A
:1018800008F10108E5E7082B05D1E36E002BF7D03E
:10189000013BE366F4E70D2B01D00A2B20D1E36E68
:1018A000002BEDD0234483F80890514604F1080042
:1018B00000F006F90123606784F87030202383F379
:1018C0001188FEF7FDFC02213868FEF7C9FD0220F1
:1018D000FEF736FEFEF70CFD002383F31188CFE7F9
:1018E000E26E612A9FBF511C1219E1661372C7E7AD
:1018F0000D2BD2D1C4E700BF601E0008480B0020AA
:10190000001F0008000000000000000000000000B0
:1019100008B50148FFF784FFDC0800200000000044
:10192000044BC26F9B68B3FBF2F3034A9BB2138173
:10193000704700BFB40800200038014000000000DC
:101940002DE9F7431D460746104690460A9EBDF80E
:101950002C40FFF76DFE4E4A072D936943F00103BB
:10196000936170DCAD00EBB20F25D8F800009D400C
:1019700020EA05000B25C8F80000D8F800009D40BB
:101980000543C8F80050F9679369384643F480432B
:101990009361FFF7C5FF00233E4D3F4A2B8209218B
:1019A0003E48FFF77DFA9222DFF80081DFF80091D0
:1019B000D8F824300121C3F808901A600C2387F866
:1019C000EC10AB81C0233046AB82FFF731FEF368E9
:1019D000A1401943072CF1604D4648DC0F21A400BB
:1019E000E3B208243268994022EA01023260326888
:1019F0009C401443346000230F211A462848FFF707
:101A00004FFAD8F8303007F580729D60DA606322B3
:101A10005A604FF485521A601A684FF4847142F08C
:101A200001021A600023022200931E481E4BFEF79B
:101A300017FF184A786093899BB243F4005393814F
:101A400003B0BDE8F0830F20083DAD00D8F80430A6
:101A5000EDB2A84023EA0003C8F804300B23D8F8FD
:101A6000040003FA05F50543C8F804508BE70F227C
:101A7000083CA4007368E4B2A24023EA0203736046
:101A80000823726803FA04F414437460B3E700BFD8
:101A9000001002400038014061170008841E000851
:101AA000901E0008400A002011190008601E00085E
:101AB00004380140000000000000000000000000A9
:101AC000024A012312685C3200F002B800040020D0
:101AD000F0B418B307460D4617F8016B01E0A642B3
:101AE00017D015F8014B002CF9D1E6B10C4617F8C8
:101AF000015B01E0002BF9D014F8013B9D42F9D1C4
:101B000055B1002307F8013C064617603046F0BC8B
:101B1000704753B13846DDE72F46F5E710680028D7
:101B2000D8D10646F2E71660F0E717600646037064
:101B3000ECE700BF00000000000000000000000013
:101B4000002301461A46184600F032B80000000093
:101B500038B50A4C0A4D641BA4100AD004F1804326
:101B6000013B05EB8305013C55F804399847002CEF
:101B7000F9D1BDE8384000F017BA00BFFC000008FA
:101B8000F800000800000000000000000000000055
:101B9000704700BF000000000000000000000000CF
:101BA000704700BF000000000000000000000000BF
:101BB0002DE9F8432C4D0646286898460F46914675
:101BC000FFF7E6FF294B1C68D4F84831002B3ED0C4
:101BD0005A681F2A1CDC02F1010E76B1012103EBC9
:101BE0008204C4F88890D3F8880191400843022EFB
:101BF000C3F88801C4F8088123D00232C3F804E096
:101C0000286843F82270FFF7CBFF0020BDE8F88377
:101C1000174B0BB34FF4C870AFF300800346D8B135
:101C20000020D4F848114FF0010E586019600246A8
:101C3000C4F84831C3F88801C3F88C01002EDCD009
:101C4000CCE7D3F88C010143C3F88C11D5E704F538
:101C5000A673C4F84831BBE72868FFF7A1FF4FF02F
:101C6000FF30BDE8F88300BF30080020A01F000847
:101C70000000000000000000000000000000000064
:101C8000000000000000000001020304060708092C
:101C9000000000000102030400000000000000003A
:101CA00053562331005356233200535623330053E7
:101CB00056233400535623350053562336005356CB
:101CC00023370053562338005356233900535623E5
:101CD0003130005356233131000000000000000075
:101CE00022636845767452656769737465724D61E5
:101CF000736B22282900226368457674556E7265DD
:101D000067697374657222282900226368457674B6
:101D10005369676E616C4922282900226368457601
:101D20007442726F6164636173744D61736B4922B5
:101D30002829002263684576745369676E616C22B6
:101D4000282900226368457674446973706174635E
:101D50006822282900636845767444697370617449
:101D6000636828292C2023310000000000000000B7
:101D7000636853636852656164794928292C20237C
:101D80003100737461636B206F766572666C6F7778
:101D90000000000000000000000000000000000043
:101DA0002263685468644372656174654922282916
:101DB000002263685468645365745072696F726975
:101DC0007479222829006368546864526573756DBC
:101DD0006528292C20233100226368546864536CE1
:101DE00065657022282900636854686445786974C1
:101DF0005328292C2023310000000000000000009F
:101E00002263685654536574492228290022636866
:101E100056545265736574492228290063685654E4
:101E200052657365744928292C2023310000000075
:101E300022646D61416C6C6F6361746522282900B6
:101E400022646D6152656C656173652228290064A6
:101E50006D6152656C6561736528292C2023310002
:101E6000080002400400024000000B001C00024079
:101E70000400024004010C00300002400400024053
:101E800008020D0044000240040002400C030E0052
:101E9000580002400400024010040F006C00024091
:101EA00004000240140510008000024004000240BB
:101EB00018061100000000000000000000000000F3
:101EC0000D25530D00000000000000000000000080
:101ED0000008014001000000000000400200000076
:101EE0000008014003000000000000400400000062
:101EF0000008014002000000000000400300000054
:101F0000202C000000000000000000000000000085
:101F10000000000000000000B117000800000000F1
:101F20000058020000FF00FF010807000000000049
:101F300000580200002DFFFF01080700000000000C
:101F40000058020000FFB400010807000000000074
:101F5000005802000000FF0B01080700000000000D
:101F6000020000000000000000000000000000006F
:101F70004F637420203520323031372030303A33EF
:101F8000373A31350046697265666C7933000D2544
:101F9000532025530D000000000000000000000049
:041FA0000804002011
:041FA400F8B500BFCD
:041FA800F8B500BFC9
:101FB000080400200000000000000000F4060020DB
:101FC0005C070020C40700200000000000000000A3
:101FD0000000000000000000000000000000000001
:101FE00000000000000000000000000000000000F1
:101FF00000000000000000000000000000000000E1
:1020000000000000000000000000000000000000D0
:1020100000000000000000000000000000000000C0
:1020200000000000000000000000000000000000B0
:1020300000000000000000000000000000000000A0
:102040000000000000000000000000000000000090
:102050000000000000000000000000000000000080
:1020600001000000000000000E33CDAB34126DE61D
:10207000ECDE05000B000000000000000000000086
:102080000000000000000000000000000000000050
:102090000000000000000000000000000000000040
:1020A0000000000000000000000000000000000030
:1020B0000000000000000000000000000000000020
:0423E000180C0020B5
:0400000508000B31B3
:00000001FF
